:0400000041EF0AF0D2
:100EBE00C58AC58812009EA6FED79E961200C586CC
:100ECE0062EC07F01200C58262EC07F01200C580DA
:100EDE0062EC07F01200C58462EC07F01200016E9E
:100EEE009EA8FED701C0ADFF120066EC07F05FECC6
:100EFE0007F0C9501200016E01C0C9FF62EC07F085
:020F0E001200CF
:100F11003030300030303A30303A3030000F0EC1CE
:0F0F21006E1E0E936EF19E8150E009816E1200DC
:100F310030303030303030300030303030303030E0
:100F410030000194869488280EC66E310EC86EC793
:100F51009CC78E9E96A1961200046E000E016E0330
:100F6100500DEC08F0010E016E04500DEC08F0126A
:100F710000036E6EEC07F0D00E82EC07F003508296
:100F8100EC07F0025082EC07F072EC07F01200C09F
:100F91008EC09AC088C096C090C082C094C292C1CF
:100FA1009AC198000EC46E000EC36EC28012004B2F
:100FB100EC08F0A2EC07F000EC09F08FEC07F0C8A8
:100FC100EC07F0C0EC08F09390C168819012000921
:100FD100C001F00AC002F0036A8E0E046E000E0515
:100FE1006E36EC0BF001C009F002C00AF003C00B31
:100FF100F0120001500302F3CF05F0F4CF06F00127
:10100100500402F350062602500302F3500626054F
:10101100C001F006C002F01200026E01A002D082EF
:101021008201D0829202C083FF82848294958E8253
:101031008082928284829483BEFCD78290959E1294
:1010410000026E6EEC07F0A00E82EC07F0025082F7
:10105100EC07F06AEC07F0A10E82EC07F07CEC07DC
:10106100F0036E72EC07F003501200026E6EEC0793
:10107100F0D00E82EC07F0025082EC07F06AEC0728
:10108100F0D10E82EC07F07CEC07F0036E72EC07F6
:10109100F003501200000E956E9450F80B946E827E
:1010A10090000E016E020E0DEC08F0000E016E387C
:1010B1000E0DEC08F0000E016E0C0E0DEC08F000A8
:1010C1000E016E010E0DEC08F01200036E6EEC07BE
:1010D100F0A00E82EC07F0035082EC07F002508280
:1010E100EC07F072EC07F0000E056E000E046E05C1
:1010F100BE06D0E80E045C030E0558D8B0120004F9
:101101004A052AF5D7076E07C003F0D8900336D8F1
:10111100900336C250C30B0310C26EC282C2B2FE2C
:10112100D7C350C4CF03F0046A03C004F0036A03B9
:1011310010056E0450066E05C001F006C002F012E3
:1011410000016E0104D8A413D07CEC0AF0566E564F
:1011510028D8B407D04D50D8B404D0000E4D6E56E7
:101161005012005628D8A409D0010E4D6E06D001A8
:1011710050D8A403D07CEC0AF01200FF0E120094A8
:101181008E949CAC9EAC9CAC8AAC98AC96AC84AC76
:1011910092AC90AB8EAB9CAB9AAB88AB96AB94AB5D
:1011A10092AB90B89EB88CB898B896B892B8908126
:1011B1000EAF6E9D889E989D8A9E9A1200035004E0
:1011C10010D8B418D0010E056E04D0D8900336049F
:1011D10036052A04AEFAD70350015C04500258D8F0
:1011E100A004D00350015E0450025AD89004320387
:1011F10032052EF1D701C001F002C002F012000049
:101201000E36EC08F0046E04508009026E000EB92F
:10121100EC07F0020E36EC08F0046E0450400902AF
:101221006E020EB9EC07F0930E026E070EB9EC07D1
:10123100F0000E36EC08F0046E04507F0B026E00D5
:101241000EB9EC07F01200000E0B6E000E0A6E08CC
:10125100500910D8B41CD0010E0C6E04D0D89008DF
:101261003609360C2A09AEFAD7D8900A360B360859
:1012710050065C09500758D8A005D00850065E09F1
:1012810050075A0A80D890093208320C2EEDD70A3D
:10129100C006F00BC007F0120014D002C0F6FF0325
:1012A100C0F7FFF86A050EF76403D00800F5500592
:1012B100D0F6CFE9FFF7CFEAFFEF5076EC07F00267
:1012C1004A032A02C0F6FF03C0F7FFF86A050EF7CA
:1012D1006403D00800F55005D0F6CFE9FFF7CFEA57
:1012E100FFEF500009D8B41200D8D7000E156E00D8
:1012F1000E146EA00E1518D8B41200000E176E0051
:101301000E166E17BE06D0175012E1100E165CD8DD
:10131100B00ED0040E1624D96E000E1720DA6E1509
:101321005021EC08F0DF6E152A164A172AEAD70475
:101331000E026E000E036E4DEC09F0F80E026E2FD8
:101341000E036E4DEC09F0D5D7000E016E09500D5C
:10135100EC08F016D0010E016E07C0F6FF08C0F7C9
:10136100FFF86A050EF76403D00800F55005D0F6C2
:10137100CFE9FFF7CFEAFFEF500DEC08F0074A087D
:101381002A07C0F6FF08C0F7FFF86A050EF76403E5
:10139100D00800F55005D0F6CFE9FFF7CFEAFFEF0F
:1013A100500009D8B41200D6D7020E36EC08F04E20
:1013B1006E010E36EC08F04F6E000E36EC08F05060
:1013C1006E4EAC04D04E380F0B010B03D04E380FCC
:1013D1000B030B300F576E4E500F0B300F586E3AF8
:1013E1000E596E4F380F0B0F0B300F5A6E4F500FB7
:1013F1000B300F5B6E3A0E5C6E50380F0B0F0B30DB
:101401000F5D6E50500F0B300F5E6E000E5F6E124F
:1014110000000E066E02AE06D0016C021ED8B002AC
:101421002A010E066E04AE04D0036C041ED8B0046B
:101431002A03500410D8B418D0010E056E04D0D878
:101441009003360436052A04AEFAD70350015C0432
:10145100500258D8A004D00350015E0450025AD85B
:101461009004320332052EF1D70650D8B404D001CE
:101471006C021ED8B0022A01C001F002C002F012B3
:101481000000EE4EF0120EEE6AE806FDE1110EF6D6
:101491006E0F0EF76E000EF86E01EEB9F010EE0D44
:1014A100F00900F5CFEEFFE550E150FAE1700EF6DC
:1014B1006E150EF76E000EF86E00EE60F010EE780D
:1014C100F00900F5CFEEFFE550E150FAE1310EF6FB
:1014D1006E0F0EF76E000EF86E00EE3BF010EE137D
:1014E100F00900F5CFEEFFE550E150FAE1000EF80A
:1014F1006E000102EF12F0819A818C818E81B2021D
:10150100D0010E120081B402D0040E120081B60285
:10151100D0070E120081B802D00A0E1200818A8112
:101521009C818E81B202D0020E120081B402D005DC
:101531000E120081B602D0080E120081B802D00B43
:101541000E1200818A818C819E819E81B202D0031C
:101551000E120081B402D0060E120081B602D0092B
:101561000E120081B802D00C0E1200FF0E1200768E
:10157100696577206C6F67202020202020202000C3
:10158100646F776E6C6F6164206C6F672020202020
:1015910000636C656172206C6F6720202020202021
:1015A10020006368616E67652070617373776F7285
:1015B1006420007365742074696D652020202020EB
:1015C100202020002020202020202020202020203A
:1015D100200000000030303030303030300030300A
:1015E10030303030303000000E066E04AE06D003CD
:1015F1006C041ED8B0042A010E066E02AE06D0019C
:101601006C021ED8B0022A010E061A000E086E00E6
:101611000E076E03500410D8B41CD0010E056E04E1
:10162100D0D89003360436052A04AEFAD7D89007ED
:101631003608360350015C04500258D8A005D00387
:1016410050015E0450025A0780D8900432033205DB
:101651002EEDD70650D8B404D0076C081ED8B008B8
:101661002A07C001F008C002F012000450D8B405E6
:10167100D0015002100310D8A40CD0000E016E004E
:101681000E026E000E036E1200042AD8900332027D
:10169100320132000E0114066E000E0214076EFEB6
:1016A1000E0314086E065007100810D8B40CD0ECC5
:1016B100D7042A010E0126000E0222000E0322D8B1
:1016C10090033202320132000E0114066E000E0246
:1016D10014076EFF0E0314086E065007100810D889
:1016E100B406D0E6D70406D8900136023603360296
:1016F100BE03D0020E0460F6D704A0029ED8900467
:1017010032045003120550D8A4038E01C001F00227
:10171100C002F003C003F012000EC012F0136A14ED
:101721006A0D34123601E313801250196E1950D824
:10173100A407D0000E0C6E000E0D6E000E0E6E1280
:101741000011C012F0136A146A1034123601E31347
:101751008012501A6E1A50D8A407D0000E0C6E00D9
:101761000E0D6E000E0E6E1200000E166E000E179C
:101771006E000E186E1A50890F195E0EC01AF01104
:10178100501A1A800E1A160D8EFF0E0C16FF0E0D32
:1017910016000E0E16108EFF0E0F16FF0E101600FD
:1017A1000E1116180E156ED8901636173618360FFC
:1017B100500C5C10500D5811500E58D8A007D00F86
:1017C100500C5E10500D5A11500E5A1680D8900CC4
:1017D100360D360E36152EE7D716C001F017C002AA
:1017E100F018C003F019C004F01AC005F036EC0B74
:1017F100F001C00CF002C00DF003C00EF012001D8C
:10180100C01FF0206A216A1C341F3601E320801FAB
:1018110050296E2950D8A409D0000E1B6E000E1C51
:101821006E000E1D6E000E1E6E1200170E1F6E1B37
:10183100C020F01CC021F01DC022F01F28236E041F
:10184100D0D890223221322032232EFAD7205024B0
:101851006E1C8EFF0E1B16FF0E1C16000E1D161B96
:1018610050256E1C50266E1D50276E286A8E0E293B
:101871005E29AE16D02950800A8F0FD8B009D0004A
:101881000E1B6E000E1C6E000E1D6E000E1E6E12E3
:1018910000D8902832273226322532293EF9D71531
:1018A100D0170E29640FD0000E1B6E000E1C6E00A7
:1018B1000E1D6E000E1E6E1200D89025362636279C
:1018C10036283629062950D8A4F7D72450D8B40889
:1018D100D0281E271E261E256C000E262227222810
:1018E1002225C01BF026C01CF027C01DF028C01EF9
:1018F100F01200000E386E010E2F6E000E336E00D6
:101901000E326E000E316E000E306E000E1A6E0039
:101911000E2B6E000EA1EC08F02E6E000E2D6E0047
:101921000E2C6E2DBE06D0DC0E2C5C050E2D58D86B
:10193100B003D02C4A2D2AF5D72F04D8A43DD000CE
:101941000E356E000E346E35BE06D0355023E110D3
:101951000E345CD8B01FD0A00E3818D8A402D00025
:101961000E386E0A0E3424D96E000E3520DA6E3828
:101971005021EC08F0DF6E1B0E3424D96E000E35B9
:1019810020DA6E3850100F21EC08F0DF6E382A345F
:101991004A352AD9D70A0E076E000E086E800E0945
:1019A1006EA5EC09F01B0E076E000E086EC00E0945
:1019B1006EA5EC09F0000E2F6E020E2F18D8A43779
:1019C100D0000E376E0F0E366E37BE1FD038061B95
:1019D1000E3624D96E000E3720DA6E385021EC080D
:1019E100F0DF6E0A0E3624D96E000E3720DA6E381B
:1019F10050100F21EC08F0DF6E3850D8A402D0A0AF
:101A01000E386E3606D8A03706DFD70A0E076E00ED
:101A11000E086E800E096EA5EC09F01B0E076E0014
:101A21000E086EC00E096EA5EC09F0000E2F6E08AF
:101A31000E2E18D8A40BD0324A332AC80E321833CE
:101A410010D8A419D0000E336E960E14D033500F57
:101A5100E1C80E325CD8B00BD032503310D8B40785
:101A6100D0000E336E000E326E010E2F6E04D000C8
:101A71000E336E000E326E090E2E18D8A403D0302C
:101A81004A312A47D7F40E305C010E3158D8B00BD9
:101A9100D030503110D8B407D0000E316E000E3066
:101AA1006E020E2F6E36D7F50E305C010E3158D80E
:101AB100B01200000E316E000E306E2BD7000E0DED
:101AC1006E000E0C6E000E196E010E186E000E17D0
:101AD1006E000E166E000E116E000E106E000E13CB
:101AE1006E000E126E000E156E000E146EFF0E07C4
:101AF1006E2E0E086EC00E096EA5EC09F0BD0E0724
:101B01006E010E086EC00E096EA5EC09F0350E07C8
:101B11006E2F0E086E800E096EA5EC09F0180419DF
:101B210010D8A428D016500A6E17500B6E164A17FB
:101B31002AE80E0A5C030E0B58D8B009D00D0E0727
:101B41006E2F0E086EC60E096EA5EC09F013D0D0EB
:101B51000E161808E1070E1718D8A404D0000E17A6
:101B61006E000E166EBD0E076E010E086EC00E09D8
:101B71006EA5EC09F0020E18181910D8A428D01679
:101B8100500A6E17500B6E164A172AE80E0A5C03AC
:101B91000E0B58D8B009D00D0E076E2F0E086EC36C
:101BA1000E096EA5EC09F013D0D00E161808E10746
:101BB1000E1718D8A404D0000E176E000E166EBDB5
:101BC1000E076E010E086EC00E096EA5EC09F0033A
:101BD1000E18181910D8A428D016500A6E17500BD9
:101BE1006E164A172AE80E0A5C030E0B58D8B00984
:101BF100D00D0E076E2F0E086EC00E096EA5EC09F2
:101C0100F013D0D00E161808E1070E1718D8A40447
:101C1100D0000E176E000E166EBD0E076E010E0877
:101C21006EC00E096EA5EC09F0010EA1EC08F00AD8
:101C31006E0A500E6E0F6A0B0E0E180F10D8A48389
:101C4100D018041910D8A427D0104A112A3B0E101D
:101C5100181110D8A404D0000E116E000E106E10D1
:101C6100C001F011C002F0000E046E0A0E036E09ED
:101C7100EC0AF00150300F0101C46F10C001F011E6
:101C8100C002F0000E046E0A0E036EF4EC0AF001BD
:101C910050300F0101C36F020E18181910D8A42774
:101CA100D0124A132A3B0E12181310D8A404D000E4
:101CB1000E136E000E126E12C001F013C002F0007E
:101CC1000E046E0A0E036E09EC0AF00150300F018A
:101CD10001C16F12C001F013C002F0000E046E0AC0
:101CE1000E036EF4EC0AF00150300F0101C06F03D6
:101CF1000E18181910D8A427D0144A152A180E1432
:101D0100181510D8A404D0000E156E000E146E1410
:101D1100C001F015C002F0000E046E0A0E036E0938
:101D2100EC0AF00150300F0101BE6F14C001F01533
:101D3100C002F0000E046E0A0E036EF4EC0AF0010C
:101D410050300F0101BD6F0C0E0E180F10D8A417E3
:101D5100D0BD0E076E010E086EC00E096EA5EC090E
:101D6100F0184A192A000E176E000E166E040E188E
:101D7100181910D8A404D0000E196E010E186E099E
:101D81000E0E180F10D8B41200C9D6300E216E35C0
:101D91000E2D6E000E0D6E000E0C6E000E2A6E00E2
:101DA1000E296E000E2C6E010E2B6E000E1C6E00A5
:101DB1000E1B6E000E1E6E000E1D6E000E316E00AB
:101DC1000E306E000E276E000E266E000E206E0085
:101DD1000E1F6E000E0F6E000E0E6E20EECFF01075
:101DE100EE10F0080EDBCFE3FFE806FCE2460E073B
:101DF1006E2F0E086E800E096EA5EC09F0FF0E071E
:101E01006E2E0E086EC00E096EA5EC09F0300E2D77
:101E110064F5D0010EA1EC08F0286E380E21605F48
:101E2100D026500A6E27500B6E264A272AF40E0A36
:101E31005C010E0B58D8B00AD00E0E076E2F0E089B
:101E41006E3050C00F096EA5EC09F014D0E80E26D3
:101E51001808E1030E2718D8A404D0000E276E003D
:101E61000E266EFD0E076E2F0E086E3050C00F0944
:101E71006EA5EC09F0080E2818D8A416D0212A1056
:101E81000E2924D96E000E2A20DA6E310EDF6E295A
:101E91004A2A2AFB0E076E2F0E086E3050C00F091A
:101EA1006EA5EC09F0304A312A090E2818D8A4D6BB
:101EB100D0212A100E2924D96E000E2A20DA6E3084
:101EC1000EDF6E294A2A2AFB0E076E2F0E086E308E
:101ED10050C00F096EA5EC09F0304A312ABFD0007D
:101EE1000E2F6E000E2E6E2FBE06D02F501BE10856
:101EF1000E2E5CD8B017D0100E2E24D96E000E2FE6
:101F010020DA6E3B0E2E24E16E000E2F20E26EDEF3
:101F110050E618D8B404D0000E2C6E000E2B6E2E95
:101F21004A2F2AE1D72B502C10D8B403D0300E2DD4
:101F31006E95D0310E2D645BD01D500A6E1E500B74
:101F41006E1D4A1E2AE80E0A5C030E0B58D8B01605
:101F5100D0DD0E076E2F0E086EC00E096EA5EC09BE
:101F6100F0CA0E036E2D04ADEC07F0F30E076E2FD1
:101F71000E086ECC0E096EA5EC09F028D01B4A1C88
:101F81002AF50E1B181BE11C04D8A418D0000E2C36
:101F91006E010E2B6E000E2A6E000E296E000E31A0
:101FA1006E000E306E300E216E000E1E6E000E1D84
:101FB1006E000E1C6E000E1B6E81902D06FD0E072D
:101FC1006E2E0E086EC00E096EA5EC09F01F4A2098
:101FD1002A650E1F182010D8A441D081B002D081EB
:101FE1008001D08190000E206E000E1F6E37D03020
:101FF1000E2D6E000E2C6E000E2B6E30D02B502C41
:1020010010D8B423D0CD0E076E2F0E086EC00E0966
:102011006EA5EC09F08190100E226E270E236E0042
:102021000E246E000E256E25BE12002550241023AD
:102031001003E12204D8A01200FF0E2226FF0E2376
:1020410022FF0E2422FF0E2522EED7BD0E076E2F92
:102051000E086EC00E096EA5EC09F08180030E1A00
:102061006EE80E196E1906D8A01A061928FBE11A96
:1020710028D8B4CCD6F7D7000E306E300E2A6E3089
:102081000E2B6E20EE44F010EE15F0080EDBCFE3C0
:10209100FFE806FCE220EEC6F010EE0CF0080EDBC5
:1020A100CFE3FFE806FCE2000E276E000E266E006D
:1020B1000E326E000E316E000E296E000E286E007B
:1020C1000E346E000E336E000E236E000E226E0073
:1020D1000E366E000E356E000E1F6E000E1E6E0067
:1020E1000E256E000E246E000E016E010E0DEC0821
:1020F100F0010EA1EC08F0306E380E2A606BD0238F
:102101000E076E2F0E086E800E096EA5EC09F035D4
:10211100500A6E36500B6E354A362AF40E0A5C01AF
:102121000E0B58D8B00AD00E0E076E2F0E086E3166
:1021310050C00F096EA5EC09F014D0E80E3518084F
:10214100E1030E3618D8A404D0000E366E000E3509
:102151006EFD0E076E2F0E086E3150C00F096EA571
:10216100EC09F0080E3018D8A41AD02A2A150E2628
:1021710024D96E000E2720DA6E310EDF6E264A2733
:102181002AFB0E076E2F0E086E3150C00F096EA587
:10219100EC09F0000E366E000E356E314A322A0916
:1021A1000E3018D8A49AD02A2A150E2624D96E00EA
:1021B1000E2720DA6E300EDF6E264A272AFB0E0725
:1021C1006E2F0E086E3150C00F096EA5EC09F0316B
:1021D1004A322A83D0380E2B6080D0380E2A18D884
:1021E100A40ED0000E076E2F0E086EC00E096EA54C
:1021F100EC09F0000E366E000E356E390E2A6E10A7
:102201000E076E2F0E086E800E096EA5EC09F035D3
:10221100500A6E36500B6E354A362AF40E0A5C01AE
:102221000E0B58D8B00AD00E0E076E2F0E086E3363
:1022310050C00F096EA5EC09F014D0E80E3518084E
:10224100E1030E3618D8A404D0000E366E000E3508
:102251006EFD0E076E2F0E086E3350C00F096EA56E
:10226100EC09F0080E3018D8A41AD02B2A0C0E282D
:1022710024D96E000E2920DA6E310EDF6E284A292C
:102281002AFB0E076E2F0E086E3350C00F096EA584
:10229100EC09F0334A342A000E366E000E356E0911
:1022A1000E3018D8A41AD02B2A0C0E2824D96E006F
:1022B1000E2920DA6E300EDF6E284A292AFB0E071E
:1022C1006E2F0E086E3350C00F096EA5EC09F03366
:1022D1004A342A000E366E000E356E380E2B18D891
:1022E100A406D0000E256E010E246E390E2B6E242D
:1022F100502510D8B4FDD6000E2D6E000E2C6E2D7B
:10230100BE06D02D504CE1080E2C5CD8B048D00C44
:102311000E2C24D96E000E2D20DA6E150E2C24E120
:102321006E000E2D20E26EDE50E618D8B435D000D6
:102331000E236E010E226E9B0E076E2F0E086EC0CD
:102341000E096EA5EC09F0300E2A6E300E2B6E00D0
:102351000E346E000E336E000E326E000E316E00C2
:102361000E366E000E356E000E256E000E246E03C5
:102371000E216EE80E206E2006D8A021062028FB33
:10238100E12128D8A4F8D7FF0E076E2E0E086EC0E3
:102391000E096EA5EC09F003D02C4A2D2AB0D722E4
:1023A100042310D8B4A5D6000E2F6E000E2E6E2F6A
:1023B100BE06D02F5015E1080E2E5CD8B011D015F5
:1023C1000E2E24D96E000E2F20DA6E3B0E2E24E144
:1023D1006E000E2F20E26EDFCFE7FF2E4A2F2AE795
:1023E100D7AC0E076E2F0E086EC00E096EA5EC0954
:1023F100F01E4A1F2AF50E1E1803E11F04D8B4125D
:102401000077D6D8EC07F0000E0101A56F000EA6EB
:102411006F000EA76F000EA86F000E0101A96F00DB
:102421000EAA6F000EAB6F000EAC6F300E0101B63D
:102431006F000E0101B86F000EB76F000E0101A011
:102441006FB9C166F1BAC167F1BBC168F1BCC169BD
:10245100F120EE60F011EE00F0650EDBCFE3FFE856
:1024610006FCE2000E0101A46F010EA36F000E0134
:10247100016B6F000E6A6F000E01016D6F000E6C33
:102481006F000E01016F6F010E6E6F000E01017181
:102491006F000E706F000E0101916F000E906F00C2
:1024A1000E01017E6F010E7D6F200E0101876F20ED
:1024B1000E0101886F4F0E0101896F4E0E01018AD5
:1024C1006F200E01018B6F000E01018F6F0101A3BF
:1024D100510101A411D8B4CBD1D5EC09F08A0E0772
:1024E1006E2F0E086E800E096EA5EC09F0AE0E0F70
:1024F1006E230E106E410E116E040E83EC08F00176
:10250100C009F002C00AF0E8EC07F009C00CF00ABB
:10251100C00DF00BC00EF08DEC0BF00CC01BF00DDC
:10252100C01CF00EC01DF000EC0CF01BC09EF11C95
:10253100C09FF19EC101F09FC102F0000E046E0A1E
:102541000E036EDFEC08F00150300F01018E6F00B9
:102551000E046E640E036E9EC101F09FC102F0DF96
:10256100EC08F001C006F002C007F0000E096E0A87
:102571000E086E24EC09F00650300F01018D6F9E9C
:10258100C106F09FC107F0000E096E640E086E24AB
:10259100EC09F00650300F01018C6F010EA1EC081F
:1025A100F0396E39500101B26FB36BB46BB56B0189
:1025B10001B2290101B3110101B4110101B511D811
:1025C100B410D0030E01017C6FE80E7B6F01017B1B
:1025D10007D8A07C0701017B29F9E101017C29D8F9
:1025E100A4F5D70101B2050101B3110101B4110133
:1025F10001B511D8A420D0000E0101916F010E90F8
:102601006F470E0101896F340E01018A6510D035C3
:102611000E0101B619D8A402D0520E06D04E0E01F9
:10262100018A19D8A406D0310E0101B66F02D0017A
:1026310001B62BB6C18AF1020E0101B2190101B333
:10264100110101B4110101B511D8A42BD0000E0163
:1026510001916F010E906F470E0101896F0101B663
:1026610007300E0101B66502D0B6C18AF1300E0104
:1026710001B619D8B405D0510E0101B619D8A4116B
:10268100D0510E0101B619D8A406D0350E0101B6FC
:102691006FB6C18AF106D0310E0101B66F4E0E013F
:1026A100018A6F030E0101B2190101B3110101B4D5
:1026B100110101B511D8A40BD0000E0101916F01D8
:1026C1000E906F200E0101896F430E01018A6F0880
:1026D1000E0101B2190101B3110101B4110101B5DA
:1026E10011D8A45AD0C6EC0EF0000E01019B6F0068
:1026F1000E9A6F01019BBF08D0D00E01019A5D07B0
:102701000E01019B59D8B004D001019A4B9B2BF1CA
:10271100D7000E0101A46F000EA36FB7C101F0B87D
:10272100C102F0000E046E110E036EFAEC07F00008
:102731000E0124076E010E0220086E810E096EA59E
:10274100EC09F0010E0101B725016E000E0101B87F
:1027510021026E000E046E110E036EFAEC07F000FA
:102761000E0124076E010E0220086EC10E096EA52E
:10277100EC09F0800E036E2A0EADEC07F0C00E03DB
:102781006E200EADEC07F0FF0E0101B26F000EB32B
:102791006F000EB46F000EB56F000E0101AE6F0039
:1027A1000EAD6F0101AEBF08D00101AE511BE108B2
:1027B1000E0101AD5DD8B016D0570E0101AD25D97E
:1027C1006E000E0101AE21DA6E7F0E0101AD25E131
:1027D1006E010E0101AE21E26EDFCFE7FF0101AD17
:1027E1004BAE2BDFD70101900501019111D8A43126
:1027F100D0A00E0101A019D8A403D0000E0101A0A0
:102801006F000E0101A26F000EA16F0101A2BF08AE
:10281100D00101A25119E1100E0101A15DD8B0143E
:10282100D07F0E0101A125D96E010E0101A221DA8D
:102831006EDF50026E0101A05166EC08F00101A0AB
:102841002B0101A14BA22BE1D7000E0101916F00D9
:102851000E906F0101A3510101A411D8B408D07FDA
:102861000E076E010E086EC00E096EA5EC09F0018F
:1028710001A3510101A411D8A429D6000EA1EC088D
:10288100F0396E39500101B26FB36BB46BB56B01A6
:1028910001B2290101B3110101B4110101B511D82E
:1028A100B414D0000E01019D6F000E9C6F01019DBB
:1028B100BF08D0E80E01019C5D030E01019D59D8AE
:1028C100B004D001019C4B9D2BF1D7080E0101B240
:1028D100190101B3110101B4110101B511D8A40805
:1028E100D0010E0101A527000EA623A723A823814D
:1028F100D20101A8510101A71153E12C0E0101A53B
:102901005D010E0101A659D8B04BD00101A55101BD
:1029110001A6110101A7110101A811D8B441D001EB
:1029210001B7510101B811D8B404D00101B707D8DA
:10293100A0B807B7C101F0B8C102F0000E046E11D2
:102941000E036EFAEC07F0000E0124076E010E0271
:1029510020086E810E096EA5EC09F0010E0101B788
:1029610025016E000E0101B821026E000E046E11E8
:102971000E036EFAEC07F0000E0124076E010E0241
:1029810020086EC10E096EA5EC09F0800E036E2AB7
:102991000EADEC07F0C00E036E200EADEC07F0207B
:1029A100D20101A8510101A71108E12D0E0101A5D4
:1029B1005D010E0101A659D8A013D20101B7510141
:1029C10001B811D8A439D07AEC0CF0B7C101F0B834
:1029D100C102F0000E046E110E036EFAEC07F00056
:1029E1000E0124076E010E0220086E810E096EA5EC
:1029F100EC09F0800E036E2A0EADEC07F0C00E0359
:102A01006E200EADEC07F0010E0101B725016E003D
:102A11000E0101B821026E000E046E110E036EFA52
:102A2100EC07F0000E0124076E010E0220086EC1B2
:102A31000E096EA5EC09F0D4D10101B7050101B869
:102A410011D8A49AD001017D5101017E11D8B4039E
:102A5100D076EC09F018D0720E026E010E036E4DA5
:102A6100EC09F0E70E026E2F0E036E4DEC09F08CAF
:102A71000E026E010E036E4DEC09F0F80E026E2F80
:102A81000E036E4DEC09F0570E026E000E036E4DF3
:102A9100EC09F0ED0E026E2F0E036E4DEC09F08C79
:102AA1000E026E010E036E4DEC09F0F80E026E2F50
:102AB1000E036E4DEC09F0680E076E2F0E086E8046
:102AC1000E096EA5EC09F0570E076E2F0E086EC0A9
:102AD1000E096EA5EC09F0A00E0101926F860E930E
:102AE1006F010E946F000E956F01019251010193D8
:102AF100110101941101019511D8B407D00101927E
:102B010007000E935B945B955BEFD7B7C101F0B8FB
:102B1100C102F0000E046E110E036EFAEC07F00014
:102B21000E0124076E010E0220086E810E096EA5AA
:102B3100EC09F0800E036E2A0EADEC07F0C00E0317
:102B41006E200EADEC07F0010E0101B725016E00FC
:102B51000E0101B821026E000E046E110E036EFA11
:102B6100EC07F0000E0124076E010E0220086EC171
:102B71000E096EA5EC09F034D1020E0101B719015D
:102B810001B811D8A492D0000E01017E6F000E7D14
:102B91006F000E01017A6F000E0101A06F000E019E
:102BA10001B06F000EAF6F0101B0BF08D00101B0DD
:102BB100511BE1090E0101AF5DD8B016D0570E01CE
:102BC10001AF25D96E000E0101B021DA6E720E013E
:102BD10001AF25E16E010E0101B021E26EDFCFE709
:102BE100FF0101AF4BB02BDFD7790E076E2F0E0817
:102BF1006E800E096EA5EC09F0FF0E076E2E0E0811
:102C01006EC00E096EA5EC09F0A00E0101966F864B
:102C11000E976F010E986F000E996F010196510189
:102C21000197110101981101019911D8B407D0013F
:102C3100019607000E975B985B995BEFD7B7C101CF
:102C4100F0B8C102F0000E046E110E036EFAEC072B
:102C5100F0000E0124076E010E0220086E810E099C
:102C61006EA5EC09F0800E036E2A0EADEC07F0C0E4
:102C71000E036E200EADEC07F0010E0101B7250128
:102C81006E000E0101B821026E000E046E110E03DA
:102C91006EFAEC07F0000E0124076E010E02200807
:102CA1006EC10E096EA5EC09F09BD0030E0101B7B0
:102CB100190101B811D8A43BD03CEC10F0C6EC0EC0
:102CC100F0B7C101F0B8C102F0000E046E110E039D
:102CD1006EFAEC07F0000E0124076E010E022008C7
:102CE1006E810E096EA5EC09F0010E0101B72501F7
:102CF1006E000E0101B821026E000E046E110E036A
:102D01006EFAEC07F0000E0124076E010E02200896
:102D11006EC10E096EA5EC09F0800E036E2A0EAD90
:102D2100EC07F0C00E036E200EADEC07F059D00495
:102D31000E0101B7190101B811D8A452D05FEC0DF1
:102D4100F0300E0101B16FBEC139F0D00E39260F3E
:102D51000E3916BDC13AF0D00E3A260F0E3A163A88
:102D610038F00B39100101B16FB1C102F0020EB997
:102D7100EC07F0300E0101B16FC1C139F0D00E394D
:102D8100260F0E3916C0C13AF0D00E3A260F0E3A70
:102D9100163A38F00B39100101B16FB1C102F001DF
:102DA1000EB9EC07F0300E0101B16FC4C139F0D09A
:102DB1000E39260F0E3916C3C13AF0D00E3A260F3E
:102DC1000E3A163A38F00B39100101B16FB1C10258
:102DD100F0000EB9EC07F0000E0101A46F010EA383
:102DE1006F000E0101A56F000EA66F000EA76F0008
:102DF1000EA86F090E0101B2190101B3110101B44D
:102E0100110101B511D8A415D0010E0101A92700A6
:102E11000EAA23AB23AC23C80E0101A9190101AAF3
:102E2100110101AB110101AC11D8A467EF12F096A9
:102E31000E58D00101AC510101AB110101AA115B86
:102E4100E1C80E0101A95DD8B056D00101A9510117
:102E510001AA110101AB110101AC11D8B44CD0018F
:102E610001B85108E1040E0101B75DD8B003D001EA
:102E710001B74BB82BB7C101F0B8C102F0000E0485
:102E81006E110E036EFAEC07F0000E0124076E01BD
:102E91000E0220086E810E096EA5EC09F0010E01EB
:102EA10001B725016E000E0101B821026E000E046A
:102EB1006E110E036EFAEC07F0000E0124076E018D
:102EC1000E0220086EC10E096EA5EC09F0800E03FA
:102ED1006E2A0EADEC07F0C00E036E200EADEC07AE
:102EE100F00AD00101A96F000EAA6F000EAB6F00AE
:102EF1000EAC6F67EF12F0000EF4D70020202020F7
:102F0100202020202020202020202020202000639D
:102F11006F6E6669726D2050617373776F72642092
:102F210020006368616E67652050617373776F720B
:102F310064202000202020534554205F2054494D17
:102F41004520202000456E746572205061737377AF
:102F51006F72642020005355434345535346554CEB
:102F61004C202020202000444F574E4C4F414420FC
:102F7100444F4E4520202000434C454152204C4FA8
:102F810047205355434320200054494D45202020DC
:102F91004556454E5420205350002054525920414B
:102FA1004741494E20202020202000202020535539
:102FB100434345535320202020202000202020205F
:102FC1004641494C555245202020200020202020F8
:102FD1005355434345535320202020005452592038
:102FE100414741494E002020434C20002020444CC1
:0F2FF10020004C454654000A0D002A005F0000E6
:00000001FF
